:020000040800F2
:10000000785100206102000863460008353D000871
:100010006146000801100008275000080000000099
:10002000000000000000000000000000A101000826
:100030003919000800000000FD010008E54800082B
:100040007B0200087B0200087B0200087B0200089C
:100050007B0200087B0200087B0200087B0200088C
:100060007B0200087B0200087B020008A91500083B
:100070007B020008B51500087B0200087B0200081F
:10008000C11500087B0200087B0200087B02000803
:100090002D1000087B0200087B0200087B0200088C
:1000A0007B0200087B0200087B0200087B0200083C
:1000B000B54900087B0200087B0200087B020008AB
:1000C0007B0200087B0200087B0200087B0200081C
:1000D0007B020008F14E0008414F00087B02000837
:1000E0007B0200087B0200087B0200087B020008FC
:1000F0007B0200087B0200087B0200087B020008EC
:100100007B0200087B0200087B0200087B020008DB
:10011000954C0008AD4C00087B0200087B020008EB
:100120007B0200087B020008CD1500087B02000856
:100130007B0200087B0200087B0200087B020008AB
:10014000611000087B0200087B0200087B020008A7
:100150007B0200087B0200087B0200087B0200088B
:100160007B0200087B0200087B0200087B0200087B
:100170007B0200087B0200087B02000800000000F0
:100180007B0200087B020008DFF810D000F052FB71
:1001900000480047417B0008AFF300807851002001
:1001A0002C4B19680868B0E8F04F80F30988BFF35A
:1001B0006F8F4FF0000080F311887047000000003F
:1001C00008480068006880F308884FF0000080F35A
:1001D000148862B661B6BFF34F8FBFF36F8F00DF35
:1001E00000BF00BF08ED00E0DFF80C00016841F43B
:1001F00070010160704700BF88ED00E0EFF30980F7
:10020000BFF36F8F134B1A681EF0100F08BF20ED5D
:10021000108A20E9F04F106009B44FF0500080F3CD
:100220001188BFF34F8FBFF36F8F0AF069FA4FF059
:10023000000080F3118809BC19680868B0E8F04F25
:100240001EF0100F08BFB0EC108A80F30988BFF3CE
:100250006F8F7047C8040020EFF3058070470000DF
:100260000648804706480047FEE7FEE7FEE7FEE750
:10027000FEE7FEE7FEE7FEE7FEE7FEE79949000836
:10028000890100082DE9F05F0546002092469B4653
:1002900088460646814640241BE02846414647469C
:1002A000224600F0F4F853465A46C01A914110D342
:1002B00011461846224600F0DBF82D1A67EB0108BC
:1002C0004F4622460120002100F0D2F817EB00092A
:1002D0004E41201EA4F10104DFDC484631462A4687
:1002E0004346BDE8F09F40EA01039B0703D009E0C5
:1002F00008C9121F08C0042AFAD203E011F8013B12
:1003000000F8013B521EF9D27047D2B201E000F86A
:10031000012B491EFBD270470022F6E710B51346A9
:100320000A4604461946FFF7F0FF204610BD2DE9A6
:10033000FE4F81EA030404F0004421F000410094E0
:100340004FF0000B23F0004350EA01045ED052EA64
:1003500003045BD0C3F30A54C1F30A552C44A4F23E
:10036000F3340194A0FB0254C1F3130141F4801152
:10037000C3F3130343F4801301FB024400FB034E59
:10038000840A970A44EA815447EA8357A4FB076822
:1003900002958D0A05FB07854FEA932C04FB0C544C
:1003A0002705029D4FEA065847EA1637B5EB0805C0
:1003B0006EEB070C870E920E47EA811742EA831212
:1003C000A7FB0201B6EB0B0164EB00042B0D43EA23
:1003D0000C335E1844EB1C50DA465146E7FB020131
:1003E000C5F313044FEA0B3343EA14534FEA0432C4
:1003F000019C43EA0603A4F10C040294009CCDE99D
:1004000000B400F09AF803B0BDE8F08F0020014678
:10041000F9E700F0004230F000400AD0C10D01F5CC
:100420006071C0F3160042EA0151C208400711434F
:10043000704700200146704701F0004330B421F0BE
:10044000004150EA010206D00A0DA2F56072C1F324
:100450001301002A02DC30BC00207047440F44EA3C
:10046000C104C100E01830BC00EBC25000F01FB85E
:10047000202A04DB203A00FA02F100207047914064
:10048000C2F1200320FA03F3194390407047202A59
:1004900004DB203A21FA02F00021704721FA02F32E
:1004A000D040C2F12002914008431946704700290C
:1004B000A8BF7047401C490008BF20F001007047EA
:1004C00010B4B0FA80FC00FA0CF050EA010404BF4A
:1004D00010BC704749B1CCF1200421FA04F411FAA0
:1004E0000CF118BF012121430843A3EB0C01CB1DE4
:1004F0004FEA00614FEA102042BF002010BC704755
:1005000000EBC35010440029A4BF10BC7047401C2E
:10051000490008BF20F0010010BC704710B5141E40
:1005200073F1000408DA401C41F1000192185B41AC
:100530001A4301D120F0010010BD2DE9F04D924683
:100540009B4611B1B1FA81F202E0B0FA80F220329A
:100550009046FFF78DFF04460F4640EA0A0041EA45
:100560000B0153465A46084313D0114653EA010083
:1005700019D0C8F140025046FFF789FF05460E46E4
:10058000504659464246FFF773FF084305D0012005
:1005900004E020463946BDE8F08D0020054346EAD8
:1005A000E0762C4337430A986305E40AA0EB080081
:1005B0000022FD0A44EA47540A3002D500200146D1
:1005C000E9E7010510196941DDE9084500196941AC
:1005D000BDE8F04DA2E72DE9FE4F804681EA030019
:1005E000C00F0C46009021F0004123F00045B8EB0D
:1005F0000200A94105D24046214690461C460B46C2
:10060000024623F00040104347D0270DC7F30A00ED
:10061000C3F30A510290401A019040286BDAC3F3E9
:10062000130040F4801B0098924620B10023D2EBC7
:10063000030A63EB0B0B01985946C0F14002504688
:10064000FFF716FF06460D4650465946019A00F040
:1006500003F910EB08006141002487EA115284EA93
:10066000E7731A4340D0009A62B3019A012A4FEA15
:10067000075215DC001B61EB02014FF0004202EA59
:100680000752CDE90042001C41F5801132462B464D
:10069000FFF753FF03B0BDE8F08F40462146F9E76E
:1006A000001B61EB0201001C41F5801300185B4147
:1006B0002018A2F5001747EB030140EAD570B619E0
:1006C0006D4111E06D084FEA360645EAC0754FEA04
:1006D0000752001B61EB0201001C41F58011490823
:1006E0004FEA30000019514132462B4603B0BDE8B5
:1006F000F04FFFF713BF0098012240000023D0EB1A
:10070000020263EBE073009821464FEAE074B8EB15
:10071000000061EB0401E9E783F000435BE781F04F
:10072000004158E72DE9F04D81EA030404F0004B45
:1007300021F0004514464FF0000A23F0004150EA32
:10074000050220D054EA01021DD0C5F30A57024623
:10075000C5F31303C1F31300C1F30A5640F4801527
:1007600043F48013A7EB0608101BD64608F2FD38A9
:1007700073EB050002D308F1010801E092185B4118
:10078000B8F1000F03DA00200146BDE8F08D00202B
:100790004FF48011064684460EE0171B73EB0507E5
:1007A00005D3121B63EB050306434CEA010C490811
:1007B0004FEA300092185B4150EA0107EDD152EA4E
:1007C000030012D082EA040083EA0501084305D041
:1007D000101BAB4106D20122002306E000224FF09D
:1007E000004302E06FF0010253101AEB06004CEBDD
:1007F000085110EB0A0041EB0B01BDE8F04DFFF78B
:100800008DBE000030B5041E71F1000404DB4FF012
:100810000044404264EB0101141E73F1000405DB47
:100820001C464FF00043524263EB04038B4208BF67
:10083000824230BD064C074D06E0E06840F00103FF
:1008400094E8070098471034AC42F6D3FFF7A0FCB9
:10085000E0CE000800CF0008202A06DBCB17203AA4
:1008600041FA02F043EAE07306E041FA02F3D040B5
:10087000C2F1200291400843194670472DE9F04D1E
:1008800000231A461B1A8A4103DB00200146BDE8FB
:10089000F08DC1F30A52C1F3130141F480154FF0FA
:1008A000000BD10702D100186D41521E00270446EB
:1008B00040F2FF11384601EB620A3E46804602468E
:1008C00000204FF48011FFF7E2FDC2197141BB18FF
:1008D00046EB0100B4EB030C75EB000C04D3E41AF7
:1008E00065EB000517460E46241908F101006D411D
:1008F00080463428E3DDF91946EB0600091BA841C0
:1009000003D24FF0FF32134601E0002213461BEBE7
:10091000070046EB0A51BDE8F04DFFF7FFBD70B58B
:100920008C1810F8015B15F0070301D110F8013B9A
:100930002A1106D110F8012B03E010F8016B01F821
:10094000016B5B1EF9D12B0705D40023521E0DD479
:1009500001F8013BFAE710F8013BCB1A921C03E0C7
:1009600013F8015B01F8015B521EF9D5A142D8D3FF
:10097000002070BD70470000464910B54A6822F457
:1009800040324A604A6843681A434A6001684A68CC
:1009900022F480724A6001684A68036942EA0322CD
:1009A0004A6001684A6822F040724A6001684A68F9
:1009B00083681A434A6001688A6822F400628A6088
:1009C00001688A68C3681A438A60816A6FF070623E
:1009D000D14201688A6822F070628A6001688A6880
:1009E0000CD0836A1A438A6001688A6822F04052F8
:1009F0008A6001688A68C36A1A4301E022F04052A3
:100A00008A6001688A6822F002028A6001688A6846
:100A1000037E42EA43028A6090F8201000290168B0
:100A20004A680FD042F400624A6001684A6822F4C2
:100A300060424A6001684A68174C436A04EB4333DA
:100A40001A4301E022F400624A600168CA6A22F493
:100A50007002CA620168CA6A838B104C04EB0353AC
:100A60001A43CA6201688A6822F400728A600168C7
:100A70008A6890F8303042EA43228A6001688A68C6
:100A800022F480628A6001688A68406942EA8020B4
:100A9000886010BD0023014000E0FFFF0000F0FF70
:100AA0002DE9F04116462DED0A8B0F468046B3F92D
:100AB0000030DDE9131000EE103ADDE91152F8EED6
:100AC000C00AFE4CDDF840C0C4ED0E0ABCF900308F
:100AD00000EE103AB8EEC00A84ED0F0AB5F9003006
:100AE000032593FBF5F31BB203EB430300EE103A2F
:100AF000B8EEC00A84ED100AB2F9002000EE102A08
:100B0000B8EEC01A84ED111AB1F9001000EE101AF7
:100B1000B8EEC00A84ED120AB0F9000021EE000A16
:100B200001EE900AF8EEE11AC4ED131A20EE210A44
:100B3000B5EEC00AF1EE10FA7DD0E14D297B9FEDB4
:100B4000E18AFDEEE00AB0EE480A10EE900A00B22B
:100B500006F0C8FF84ED0E0AD4ED0F0A297BB0EE33
:100B6000480AFDEEE00A10EE900A00B206F0BAFF65
:100B700084ED0F0AD4ED100A297BB0EE480AFDEE91
:100B8000E00A10EE900A00B206F0ACFF94ED0E1AE7
:100B9000DFEDCD0A21EE201A20EE200A84ED0E1A98
:100BA00094ED0F1A21EE201A84ED0F1A84ED100A2D
:100BB000D4ED110A297BB0EE000AFDEEE00A10EE3A
:100BC000900A00B206F0A2FF84ED110AD4ED120AD9
:100BD000297BB0EE000AFDEEE00A10EE900A00B2AA
:100BE00006F094FF84ED120AD4ED130A297BB0EECF
:100BF000000AFDEEE00A10EE900A00B206F086FF51
:100C0000F0EE400AC4ED130A94ED110A94ED121AA5
:100C100020EE000A01EE010A00EEA00A06F04CFFE9
:100C200084ED070AD4ED110A60EE802AC4ED112A82
:100C3000D4ED120A00E05CE160EE804AB0EE008A7A
:100C4000C4ED124AD4ED130A20EE803A84ED133A33
:100C500094ED040AD4ED060AD4ED031A94ED051AB6
:100C600020EE202A01EEC12A22EE084A21EE802A37
:100C700084ED084A01EE202A22EE085A21EEA12A2C
:100C800084ED095A00EE402A01EE412A00EEA02A26
:100C900084ED0A2A64EE823A43EE453A23EE043AA2
:100CA00002EEC23A62EE852AC4ED0B3A44EEC42A43
:100CB00084ED0C3AC4ED0D2A94ED142A94ED015AFA
:100CC00003EE852A84ED142A94ED154A03EE054AB5
:100CD00084ED154AD4ED164A42EE854AC4ED164A13
:100CE000D4ED0E5A94ED005A45EE235A35EE822A81
:100CF00084ED0E2AD4ED0F3A45EE033A33EE843AF2
:100D000020EE424A84ED0F3AD4ED103A01EE434A08
:100D100061EE835A45EE223AB0EE615A73EEA42A90
:100D200061EE824AC4ED102AC4ED171A41EE224A40
:100D300084ED180A00EEE24A84ED191AC4ED1A0A8D
:100D4000D4ED023A40EEC34A40EE625A04EE235A12
:100D5000B0EE404A04EEA34A40EE825A84ED035AB4
:100D600084ED044A61EEA21AF0EE414A45EEA34A30
:100D700040EE031A25EE050AC4ED054A04EE040A06
:100D800041EE421A04EEA40A41EEA30AC4ED060A9B
:100D900000EEA00A06F090FE84ED070AD4ED030AE7
:100DA00020EE80BA84ED03BAD4ED040A60EE808AA6
:100DB000C4ED048AD4ED050A20EE809A84ED059AEC
:100DC000D4ED060A60EE809A2BEE0B0AC4ED069A6B
:100DD00008EEE80A09EE490A09EEA90A10EE100A1F
:100DE000FFF717FB29EE080A6BEE080A41EC1A0B15
:100DF00020EE290A00EEA80A10EE100AFFF709FB00
:100E000041EC100BB0EE4A1AF0EE6A1A04F064FCE2
:100E10009FED2EBB51EC100B53EC1B2BFFF787FA09
:100E2000FFF70AFB386094ED040AD4ED060A94ED4E
:100E3000051A20EE080A20EE200AD4ED030A60EE1F
:100E4000880A00EEC10A10EE100AFFF7E2FA41EC40
:100E5000100B04F025F99FED1F1B51EC100B53EC08
:100E6000112BFFF764FAFFF7E7FAC8F8000094EDDA
:100E700003CAD4ED048AD4ED05AA2CEE0C0A94ED35
:100E800006AA08EEA80A0AEEEA0A0AEE4A0A10EED4
:100E9000100AFFF7BEFA28EEAA0A41EC190B0CEE75
:100EA0000A0A20EE080A10EE100AFFF7B2FA41EC27
:100EB000100BB0EE491AF0EE691A0FE01400002092
:100EC000580700200000FA44728A8E3C000000603F
:100ED00066A64C400000006066A64CC004F0FCFB17
:100EE00053EC1B2B51EC100BFFF721FAFFF7A4FA80
:100EF00030600020BDEC0A8BBDE8F0812DE9F047A1
:100F0000804691460F46122003F04CF80446132009
:100F100003F048F844EA0026142003F043F804469E
:100F2000152003F03FF844EA0025162003F03AF8B4
:100F30000446172003F036F8A8F8006044EA0020C1
:100F40003D80A9F80000BDE8F0872DE9FE4F154669
:100F5000DDE90C9A0E4607460C221C4669461046EF
:100F600003F046F8BDF80080BDF802C0BDF80430BB
:100F7000BDF80620BDF80810BDF80A00A4F80080EE
:100F8000A9F800C0AAF800303A8031802880BDE876
:100F9000FE8F000038B5194805F034F904F0A6FDBD
:100FA000164804F067FD044604F0A0FD24BB0120B0
:100FB0008DF800000146114A684605F0B1F904F0C9
:100FC00095FD0E4803F0C1FB00208DF800000B4A90
:100FD0000121684605F0A4F904F088FD074803F0F4
:100FE0008AFB02208DF80000044A0121684605F0C2
:100FF00097F9044604F07AFD204638BD58070020D2
:10100000FEE7000000B58BB0684600F0FEF86946C8
:10101000054800F01FFE0221034800F09BFD024836
:1010200001F032F90BB000BDB80A0020014800F011
:101030000CBF0000B80A002000B58BB0684600F075
:10104000E4F86946054800F005FE0221034800F077
:1010500081FD024801F018F90BB000BDE00A002044
:10106000014800F0F2BE0000E00A0020008840BA0B
:101070007047408840BA00B27047808840BA00B2DA
:1010800070478079704713B5012201A900F00EF86E
:101090001CBD08B50A0A8DF800208DF80110022247
:1010A000694600F003F808BDAFF300802DE9F04178
:1010B0000446407815460E4628B1012825D1144A29
:1010C000A168106808E0124A1C3AF9E703688B42ED
:1010D00001D118B106E080690028F7D121461046F9
:1010E00000F050F8227B58B1002107E05318082B7C
:1010F00006D2775C0344491C1F71C9B2A942F5D3DB
:10110000E18982898A4200D98181BDE8F0810000AD
:101110005805002008B50A0E8DF800200A0C8DF83D
:1011200001200A0A8DF802208DF803100422694676
:10113000FFF7BCFF08BD00002DE9F04105001AD003
:101140000E4C0F4F287E002815D0284600F08CF852
:10115000064606F05FFD20603968401A606006F0C0
:1011600059FDE168401AA06006F054FDE060304689
:1011700000F0C2F8E6E7BDE8F081000000000020C2
:10118000800400202DE9F04105680F460446002642
:10119000F5B10FB91CE00546A8690028FBD11C2059
:1011A00006F078FFA861B9680160A969F8898881AB
:1011B000A86906610020011DAA69401CC0B25654EE
:1011C0000828F8D3A8698661A8694461A86917E06E
:1011D0001C2006F05FFF2060B96801602168F88973
:1011E0008881206806610020011D2268401CC0B271
:1011F00056540828F8D32068866120684461206826
:101200002179491C2171BDE8F08100210160416014
:101210008160C160016101224161C0E90612C0E93B
:101220000821704770B505004FF0000618D02879E6
:10123000B0B12C6812E000BF06F0ECFC2169411A45
:10124000A08900EB4002C2EBC010B1EBC00F04D389
:101250002146284600F01FF80126A469002CEBD196
:10126000304670BD00F026B810B5002288B1017E6E
:1012700079B1D0F80820002100EB8103491CDC681B
:10128000C9B29C600329F7D300214161017E491E48
:101290000176104610BD012250B149B1037E042BE6
:1012A00006D200EB83029160017E491C0176002288
:1012B0001046704700B5034687B09A680092002236
:1012C000012002920392082204925A7852B1012A14
:1012D00006D10A46064806AB694600BF00F04CFC42
:1012E00007B000BD0A4606AB69460248F6E70000B3
:1012F000E00A0020B80A002030B587B004004FF0A3
:10130000010521D009F020F920680090002002900A
:101310000390082004900E496069884204D106AB0E
:10132000221D69460B4807E009491C31884206D155
:1013300006AB221D6946084800F01EFC054606F073
:1013400069FC206109F020F907B0284630BD000093
:101350003C050020B80A0020E00A002010B500F08B
:1013600004F8BDE8104000F037B800B500F004F80C
:101370005DF804EB00F0CEB803480178034809B1EA
:10138000012900D10170704778040020600200201C
:1013900030B50F480F49046862680A6043685A68AC
:1013A0004A60826855688D60C5686868C86001F1E8
:1013B0001000C5600460C0E901321030216801608E
:1013C00019684160116881602968C16030BD000002
:1013D00034040020C00700202DE9F04100211A4804
:1013E00000F082F80221184800F07EF8012116482A
:1013F00000F07AF80321144800F076F8134F124EEB
:101400000024A7F1100500BF57F82400007E50B15A
:1014100055F82400002182699047641C14F0FF04F1
:10142000F2D0BDE8F08104EB4400C0EB441006EBC1
:10143000800090ED1C0ABDEEC00A10EE100A81B2C9
:1014400055F824008269E7E764020020D0070020F5
:101450002DE9F0410E462DED028B074600249FED4D
:101460000B8A0CE004EB4400C0EB441007EB800552
:10147000284606F055FC641C85ED1C8AE4B2B44293
:10148000F0D3BDEC028BBDE8F0810000000000004D
:101490002DE9F041114D00242DED028B26469FEDE4
:1014A000108A104F04EB4400C0EB441005EB8000A1
:1014B000314680ED1C8A57F8240082699047641CED
:1014C000E4B2042CEED304210448FFF7C1FFBDECC5
:1014D000028BBDE8F041FFF748BF00006402002026
:1014E00000000000C007002010B501EB4102C2EB74
:1014F000411100EB8104204694EC020A30EE600AB0
:1015000084ED020A08F090FE94ED0A0A84ED1C0AAC
:1015100010BD704713480168B1F9021000EE101AAF
:101520001149B8EEC00A81ED010A4268B2F9022001
:1015300000EE102AB8EEC00A81ED1E0A8268B2F9E8
:10154000022000EE102AB8EEC00A81ED3B0AC06806
:10155000B0F9020000EE100AB8EEC00A81ED580A98
:1015600070470000E00700206402002000210148CD
:1015700000F024BF080B002010B50A4C20688168D9
:101580008847606881688847A06881688847E06804
:101590008168884720698168884760698168BDE8FB
:1015A0001040084748020020014800F091BF0000A9
:1015B0001C0D0020014800F08BBF0000BC0C002077
:1015C000014800F085BF0000DC0D0020014800F05C
:1015D0007FBF00007C0D00202DE9F04F85680024BE
:1015E000099E802D18D0894DC563894D456490F8BA
:1015F0003450012D15D0012580F8345090F8355025
:10160000012D10D0002180F834100224002180F830
:1016100034102046BDE8F08F4FF480714165012001
:10162000F8E70220F6E7022580F8355000254565E9
:1016300005682F6847F480272F6005682B610368D1
:101640005E608368402B03682AD099600168CA6095
:10165000714D704E704FDFF8BC81DFF8B891DFF844
:10166000B8A1DFF8B4B1EA14DFF8A8E101681836D0
:1016700030379302A9F148090AF1600A0BF1180BFF
:10168000AEF1300E4FF0006C41452DD9A94205D086
:10169000494503D0514501D0B14205D1202220E077
:1016A0009A600268D160D3E759451AD0714518D0C5
:1016B000594D7835A94214D0564D3035A94210D035
:1016C000B9420BD0534A183A914207D0524A90324D
:1016D000914203D04F4A4832914201D11A4600E06C
:1016E00062464C494C392EE0DFF82C8108F1A808FD
:1016F00041452AD9A94205D0494503D0514501D0D9
:10170000B14201D120221CE059451AD0714518D0B0
:10171000414D7835A94214D03E4D3035A94210D004
:10172000B9420BD03B4A183A914207D03A4A90321C
:10173000914203D0374A4832914201D11A4600E023
:101740006246344950390A605AE0DFF8CC8008F12B
:10175000480841452AD9A94205D0494503D05145F9
:1017600001D0B14201D120221CE059451AD0714567
:1017700018D0294D7835A94214D0264D3035A942CC
:1017800010D0B9420BD0234A183A914207D0224ACE
:101790009032914203D01F4A4832914201D11A46F9
:1017A00000E062461C491039CA6029E0A94205D010
:1017B000494503D0514501D0B14201D120221CE05E
:1017C00059451AD0714518D0134D7835A94214D017
:1017D000104D3035A94210D0B9420BD00D4A183AFD
:1017E000914207D00C4A9032914203D0094A4832C4
:1017F000914201D11A4600E06246074910398A60D9
:1018000001680A6842F001020A60FFE645690008C3
:101810005D690008586402401060024001681823A6
:10182000CAB2103AB2FBF3F2054B6FF30901032A77
:101830009B5CC36500D9091D81650846704700009F
:10184000B4CD000810B5014600208B698A6A4FF0BC
:10185000C07453B1B3F5005F15D072B1012A0CD03A
:10186000022A0AD0032A09D104E01AB1012A06D0BB
:10187000022A03D1C96AC90100D5012010BDC96A75
:10188000A142FAD010BD002AF7D0012AF2D0022AD4
:10189000F3D0032AF3D010BD70B590F83450002473
:1018A000012D0CD0012580F8345090F835600025CA
:1018B000012E06D080F834500224204670BD02204C
:1018C00070BD022680F83560456505682E6826F4EF
:1018D00080262E6005686B608368402B036808D003
:1018E00099600168CA600068016841F00101016007
:1018F000E3E79A600268D160F5E710B502F0B2FE46
:10190000FFF738F8FFF732FE03F0FEFA03F024FB8E
:1019100003F04EFB03F06AFBFFF774FBBDE81040D9
:10192000FFF78ABB01680A68D20604D5C968C906F0
:1019300001D508F0FBBC704770477047044A00F5BA
:101940007A701060101D01F57A7101607047000017
:101950003404004078B50024009490F83C20012A1B
:1019600019D0012280F83C200A6807230568092A5B
:1019700013D9EE680A3A02EB420293409E43EE60AE
:101980000B788A680A3B03EB43039A400368DD68DF
:101990002A43DA6010E0022078BD2E6902EB420291
:1019A00093409E432E610B788A6803EB43039A4071
:1019B00003681D692A431A614A681F23072A13D244
:1019C00005686E6B521E02EB820293409E436E636B
:1019D0000B790A885B1E92B203EB83039A4003687B
:1019E0005D6B2A435A6327E005680D2A12D22E6BDD
:1019F000D21F02EB820293409E432E630B790A882A
:101A0000DB1F92B203EB83039A4003681D6B2A43EA
:101A10001A6311E0EE6A0D3A02EB820293409E4394
:101A2000EE620B790A880D3B92B203EB83039A4076
:101A30000368DD6A2A43DA62164B0568144A9D4240
:101A400006D10D68122D03D1556845F48005556007
:101A500005689D4218D10B68102B01D0112B13D1B2
:101A6000536843F400035360096810290CD10A49F4
:101A70000A4A0968B1FBF2F101EB8101490000E07B
:101A8000491E00910029FBD180F83C40002078BD20
:101A90000023014000200140B804002040420F0014
:101AA00070B504004FF0000503D0206C002610B183
:101AB00007E0012070BD204600F01CF8666484F841
:101AC0003C60206CC00610D4206C20F4885040F09C
:101AD000020020642046FEF74FFF6664206C20F071
:101AE000020040F00100206400E0012584F83C6021
:101AF000284670BD10B586B0044614216846FEF72E
:101B00000BFC1149206888421CD110480021026852
:101B100042F480720260006800F4807005900B4807
:101B20001438026842F004020260006800F0040009
:101B30000590012000900320CDE901016946044889
:101B400000F000FE06B010BD002001404438024005
:101B50000008024090F82020012A07D0022A05D070
:101B6000416A41F480214162012070470068426966
:101B70000A43426100207047F0B590F82050046895
:101B8000A468012D05D0022D03D0416A41F48021C3
:101B90005DE014F0406F01D1E50055D5C4F3016458
:101BA000022C03D9416A41F4000150E00125A5400F
:101BB0001D608D684FF4C0739DB1CE6835434E688B
:101BC00045EAC605066803EB0417F5514FF4C275E4
:101BD000076805EB04150E697E51097D012905D0C2
:101BE00009E00E88CD6845EA4655EBE701684E5995
:101BF00046F480764E511179D579567941EA0561DE
:101C000095792D0445EA062529434FF4C6760568E3
:101C100006EB0416A9511178D57841EA056195784B
:101C200052782D0445EA022211434FF4C47502682C
:101C300005EB04155151006803EB0411425842F0C2
:101C4000010242500020F0BD416A41F4001141629E
:101C50000120F0BD10B590F82020012A07D0022AFB
:101C600005D0416A41F480214162012010BD3B480A
:101C7000D0F8002242F00102C0F80022D0F8002281
:101C800022F47C52C0F80022D0F800224B6A42EACB
:101C90000322C0F800220A7D02F01F0301229A40AD
:101CA000D0F81C329343C0F81C32CB69B3B9D0F8DA
:101CB0000C329343C0F80C328C894B6864F31F4399
:101CC0004C6900EBC404C4F840320C890B6864F31F
:101CD0001F434C6900EBC404C4F84432CB69012BA8
:101CE00016D1D0F80C321343C0F80C320C884B6874
:101CF00064F31F434C6900EBC404C4F840320C8900
:101D0000CB6864F31F434C6900EBC404C4F844324D
:101D10008B69002BD0F804320ED01343C0F8043284
:101D20000B69002BD0F8143208D01343C0F81432DA
:101D3000096A012904D008E09343EFE79343F5E7EC
:101D4000D0F81C121143C0F81C12D0F8001221F078
:101D50000101C0F80012002010BD00000064004026
:101D6000704730B590F82040012C05D0022C03D0EC
:101D7000416A41F480215DE00468002955D024695E
:101D8000A40754D04FF4D874056804EB01142D59FE
:101D900015F00405956005682D594ED0ED08556085
:101DA00005682C5904F00204D4604FF4DA74056815
:101DB00004EB01142D5905F00F05156105682D5927
:101DC000C5F30725956105682C59240C54614FF41F
:101DD000DC72046802EB0112A4581C700468A45859
:101DE000240A5C700468A458240C9C700468A258EF
:101DF000120EDA704FF4DE72046802EB0112A4587E
:101E00001C710468A458240A5C710468A458240C4A
:101E10009C710468A258120EDA71006881B10169E0
:101E200041F020010161002030BDE468A8E7416A6B
:101E300041F400114162012030BD6D0D1560AFE726
:101E4000C16841F02001C160EDE72DE9F05F054672
:101E5000006800244669D0F804908768D0F80CB078
:101E6000D0F810A0D0F81880F10748D0F90714D0A6
:101E700001218160B80703D5284600F032FA0CE052
:101E8000780702D54FF4006407E0380702D54FF415
:101E9000805402E0284600F023FAF80516D5296898
:101EA0004FF480708860B80503D5284600F01BFA0F
:101EB0000CE0780502D544F4005407E0380502D55B
:101EC00044F4804402E0284600F00CFAF80316D5EA
:101ED00029684FF480308860B80303D5284600F0A5
:101EE00004FA0CE0780302D544F4004407E0380318
:101EF00002D544F4803402E0284600F0F5F93007BA
:101F000007D55FEACB6004D52968102044F400743B
:101F1000C86070074FF0080707D55FEA0B7004D55B
:101F20002868C760284600F099F9B00706D52868E8
:101F3000C068800702D0284600F092F9700607D5E5
:101F40005FEACA6004D52968102044F480640861FF
:101F5000B00607D55FEA0A7004D5286807612846ED
:101F600000F08EF9F00606D528680069800702D0D7
:101F7000284600F086F9B00308D55FEAC96005D5A8
:101F8000296810204860284600F07CF9F00307D546
:101F90005FEA097004D528684760284600F0A6F972
:101FA000300446D55FEA497040D5F00504D55FEAB4
:101FB000C87001D044F00104B00504D55FEA887010
:101FC00001D544F00204700504D55FEA487001D5DC
:101FD00044F00404300529D518F0700F26D008F01D
:101FE0007000402815D006DC102809D020280AD01F
:101FF000302816D10AE050280ED0602811D10EE00A
:1020000044F008040DE044F010040AE044F0200419
:1020100007E044F0400404E044F0800401E044F4AC
:1020200080742868816921F0700181612968042029
:102030004860002C05D0686A204368622846FFF794
:102040008FFEBDE8F09F70B5040003D094F8200027
:1020500010B104E0012070BD204600F081F8206836
:10206000016841F00101016000F072FC054605269F
:1020700004E000F06DFC401B0A2811D8206840687D
:10208000C007F6D02068016821F00201016000F06D
:102090005FFC05460BE000F05BFC401B0A2806D9FC
:1020A000606A40F40030606284F82060D2E7206803
:1020B00040688007EFD4207E0128206801683DD069
:1020C00021F080010160607E01282068016838D01D
:1020D00021F040010160A07E01282068016833D012
:1020E00021F020010160E07E0128206801682ED0E7
:1020F00041F010010160207F01282068016829D08B
:1021000021F008010160607F01282068016824D067
:1021100021F004010160D4E902010843D4E904126A
:10212000114308436168491E08432168C8610020C3
:102130006062012084F82000002070BD41F0800121
:10214000C0E741F04001C5E741F02001CAE721F0B6
:102150001001CFE741F00801D4E741F00401D9E7CD
:10216000F0B587B0044614216846FEF7D5F8364B23
:102170003648DFF8D0E01968D4F800C0334A0325A8
:102180000226092710300024491CF44522D1196089
:10219000012907D1016841F000710160006800F079
:1021A00000700590106840F0080010601068CDE9DC
:1021B000005600F00800CDE9047069462448CDE9D6
:1021C000024500F0BFFA00220521142000F070FC47
:1021D000142032E0DFF87CE0F44530D1D0F800C0C4
:1021E0004CF0806CC0F800C0D0F800C001290CF0A1
:1021F000806CCDF814C0196007D1016841F00071FE
:102200000160006800F000700590106840F0020066
:102210001060106802AB00F0020005906020CDE96C
:10222000000683E8B00069460B4800F08BFA0022F4
:102230000521402000F03CFC402000F02BFC07B0C2
:10224000F0BD000000640040B404002030380240BB
:10225000000C02400068004000040240704700008B
:10226000054B10B5A3F11C020021FFF77AFDBDE874
:102270001040024805F0EABC90050020F00700205D
:10228000704770477047000070B5044690F8200012
:10229000012804D0606A40F40020606218E0022047
:1022A00084F820002068016821F00101016000F03D
:1022B0004FFB05460EE000BF00F04AFB401B0A281A
:1022C00008D9606A40F400306062052084F820007C
:1022D000012070BD20684068C007EDD1606270BD0C
:1022E000704770477047704770477047704770B5C8
:1022F0004379012B1CD00126467102230371056826
:102300002B6802F0100440F6FE72A2409343D1E91C
:1023100000210A43A2401A432A6001680A68C023C8
:10232000A3409A430A60067100214171084670BDBE
:10233000022070BD70B5040003D02079002510B1D3
:1023400005E0012070BD6571204600F007F802200D
:102350002071256101202071002070BD10B586B06C
:10236000044614216846FDF7D7FF114920688842CA
:102370001CD110480021026842F00052026000683F
:1023800000F0005005900B481038026842F001023E
:102390000260006800F0010005901020009003200A
:1023A000CDE901016946044800F0CCF906B010BD42
:1023B00000740040403802400000024070B542798D
:1023C000012A1ED00122427102230371046826688B
:1023D00001F0100302FA03F52E432660002901687C
:1023E00011D00C6804F470153C249C40A54203D124
:1023F0004B6843F002034B600271002141710846B3
:1024000070BD022070BD0B68C3F383030F2BF3D1A3
:102410004B6843F00103EEE72DE9F0410446876D78
:1024200000F096FA064694F835000025022806D0FA
:102430008020606584F834500120BDE8F081206878
:10244000016821F0160101602068416921F08001D6
:102450004161206C08B9A06C20B12068016821F0AE
:10246000080101602068016821F0010101600CE0B1
:1024700000F06EFA801B052807D920206065032034
:1024800084F8350084F83450D7E720680068C00726
:10249000EED194F85C103F208840B860012084F8A9
:1024A000350084F834500020C7E790F83510022931
:1024B00003D08021416501207047052180F8351047
:1024C0000068016821F001010160002070470000F0
:1024D0002DE9F84304464FF00009CDF80090634819
:1024E0004FF41651A56D0068B0FBF1F72E6894F813
:1024F0005C10082000FA01F131420FD021680A680F
:1025000052070BD50A6822F004020A6094F85C10A6
:102510008840A860606D40F00100606594F85C1030
:102520004FF0010808FA01F0304208D021684969EB
:10253000090604D5A860606D40F00200606594F85B
:102540005C1004208840304208D02168096889075F
:1025500004D5A860606D40F00400606594F85C10DC
:1025600010208840304218D021680968090714D526
:10257000A86020680168490304D50068000308D5F5
:10258000A16C07E00168C90503D4016821F00801C6
:102590000160216C09B12046884794F85C10202026
:1025A0008840304231D021680968C9062DD5A8601D
:1025B00094F8350005282068016806D0490347D5FE
:1025C000006800031DD4616C1CE021F0160101605D
:1025D0002068416921F080014161206C08B9A06C3C
:1025E00020B12068016821F00801016094F85C10B6
:1025F0003F208840A86084F8358084F83490216DAD
:102600001FE0E16B09B120468847606D00282BD0A0
:10261000606DC00714D0052084F83500206801687B
:1026200021F0010101600098401C0090B84203D8DD
:1026300020680068C007F6D184F8358084F83490AB
:10264000E16C002910D001B02046BDE8F0430847F6
:102650000168C905D5D4016821F01001016084F832
:10266000358084F83490CCE7BDE8F883B8040020C6
:102670002DE9F041044600F06BF906465CB10220FA
:1026800084F83500002584F834502068016821F072
:10269000010101600DE00120BDE8F08100F058F972
:1026A000801B052805D920206065032084F83500AB
:1026B000F2E720680068C007F0D12268116820485E
:1026C0000140D4E901031843D4E9033633431843E6
:1026D00063691843A3691843E3691843236A1843DD
:1026E0000843616A042903D1D4E90B131943084351
:1026F000106020684069666A20F0070130460E438A
:10270000012704280CD1A06A0643E06A40B12046A4
:10271000FFF798F820B14020606584F83570BAE77B
:10272000206846612046FFF779F894F85C203F2145
:1027300091408160656584F835700020ACE7000049
:102740003F8010F02DE9F84FDFF8BCA100220125F1
:1027500003264FF00F090AF1040BAAF1040E00BF83
:102760000B6805FA02F42340A34270D10F7907F0F9
:102770000307012F01D0022F16D187684FEA4208C4
:1027800006FA08FC27EA0C07D1F80CC00CFA08FC82
:102790004CEA070CC0F808C04768A7430C79C4F39B
:1027A000001494403C4344600C79E443A4070AD0ED
:1027B000C4684FEA420C06FA0CF7BC438F6807FA6C
:1027C0000CF72743C7600C7904F00304022C12D1E4
:1027D000D40800EB840CDCF820405707FF0E09FA00
:1027E00007F824EA0804D1F8108008FA07F848EA44
:1027F0000408CCF8208004684FEA420C06FA0CF773
:10280000BC430F7907F0030707FA0CF7274307606B
:102810004C6814F4403F70D03C4C276847F4804724
:102820002760246822F0030704F480440094384CA5
:1028300007EB040CDCF8084897074FEA177809FA09
:1028400008F7BC43334FB84202D1002724E054E0DC
:10285000314FB84201D101271EE0304FB84201D1BB
:10286000022719E02E4FB84201D1032714E02D4F63
:10287000B84201D104270FE02B4FB84201D1052700
:102880000AE02A4FB84201D1062705E0284FB84296
:1028900001D1072700E0082707FA08F72743CCF8FB
:1028A0000878DAF800405746D1F804C09C435FEA44
:1028B000CC2C00D51C433C60DBF800405F46D1F8CF
:1028C00004C09C435FEA8C2C00D51C433C60DEF8BE
:1028D00000407746D1F804C09C435FEA8C3C00D5A9
:1028E0001C433C60084F083F3C68D1F804C09C433F
:1028F0005FEACC3C00D51C433C60521C102AFFF41C
:102900002FAFBDE8F88F0000083C0140443802407A
:102910000030014000000240000402400008024074
:10292000000C024000100240001402400018024057
:10293000001C0240426921EA02030A4043EA0241C4
:10294000816170470AB1816170470904FBE70000AB
:102950000148806870470000BC04002009480168F5
:10296000094A1278114401604FF08041496A0068B9
:1029700000EB4002C2EBC01001EBC000034908604D
:1029800070470000C4040020BC0400201000002098
:102990000B4810B5016841F400710160016841F411
:1029A00080610160016841F480710160032000F0E2
:1029B0009FF8002000F006F800F050F8002010BD4D
:1029C000003C024030B50546204887B0002401682D
:1029D00041F001010160006806A900F001000090CB
:1029E00001A800F031F90498B0B100F04DF94000B1
:1029F00017494FF08042B0FBF1F11648491E0260C2
:102A000040F2E732C0E90324C0E90114846100F018
:102A1000B7FB040003D015E000F036F9E8E70D48F5
:102A200000F0FEFB04000DD11C2000F033F8102D47
:102A300007D2002229461C2000F03AF8064805601B
:102A400000E0012407B0204630BD000040380240BD
:102A500040420F003C0E0020C00400200C4882B011
:102A6000016841F480410160006800F480400090FA
:102A70000748001F016841F0805101600068002292
:102A800000F0805000900F21901E02B000F010B8AE
:102A900044380240002809DB00F01F020121914068
:102AA0004009800000F1E020C0F8001170470000EC
:102AB000F0B40E4B1B680C46C3F30223C3F10705A9
:102AC000042D00D90425191D072901D2002300E097
:102AD000DB1E012606FA05F1491E214099409E4061
:102AE000761E16403143F0BC02F0B6BA0CED00E0A1
:102AF000064900F0070208684FF6FF03184040EA55
:102B00000220034A10430860704700000CED00E00B
:102B10000000FA052DE9F0470E46050065D0DFF804
:102B20001481D8F80000F7B200F00700B04207D2D5
:102B300088F80070D8F8000000F00700B04254D1C7
:102B400028683D4C810712D5400703D5206840F422
:102B5000E05020602878000703D5206840F46040EA
:102B600020602068A96820F0F000084320602878E1
:102B7000C0072DD0304968680839012812D00228D2
:102B800013D0032811D00968890700292DDA21689C
:102B900021F0030101432160FFF7DAFE814641F293
:102BA000883A0EE009688903EFE709688901ECE7D4
:102BB000FFF7CEFEA0EB0901514502D90320BDE885
:102BC000F0872068696800F00C00B0EB810FEFD14E
:102BD000D8F80010404601F00701B14207D907704C
:102BE000006800F00700B04201D00120E7E7287834
:102BF000400705D52068E96820F4E05008432060CC
:102C00002878000706D52068296920F4604040EA4A
:102C1000C100206000F058F82168084AC1F3031190
:102C2000515CC8400649086006480068FFF7CAFEC4
:102C30000020C4E7003C0240083802409CCD000858
:102C4000B8040020C00400200F2202600C4A136860
:102C500003F003034360136803F0F0038360136819
:102C600003F4E053C36012684FF4E05303EAD20266
:102C700002610448006800F0070008607047000027
:102C800008380240003C02400448054900680968D1
:102C9000044AC1F38221515CC8407047B804002047
:102CA00008380240ACCD00080448054900680968AE
:102CB000044AC1F34231515CC8407047B804002057
:102CC00008380240ACCD0008154810B5006810F077
:102CD0000C02144813D01449042A0FD0082A0ED12C
:102CE0000F4C241F2268236802F03F025B0207D5C5
:102CF0002068C0F38810A0FB010106E0084610BD63
:102D00002168C1F38811A1FB00010023FDF7BAFA85
:102D10002168C1F30141491C4900B0FBF1F010BD2D
:102D2000083802400024F40040787D012DE9F84F76
:102D300004006ED02078DFF84C93C007A9F1040599
:102D40004AD009F104000168C1F38101012908D0CA
:102D50000068C0F3810002280AD1D9F800004002BF
:102D600006D52868800337D560680028E1D033E0B5
:102D70006068B0F5803F10D0B0F5A02F286810D063
:102D800020F480302860286820F480202860606863
:102D9000A8B1FFF7DDFD06460DE0286840F480305D
:102DA000F4E740F480202860F7E700BFFFF7D0FD8C
:102DB000801B642873D828688003F7D50CE0FFF7E0
:102DC000C7FD064605E000BFFFF7C2FD801B642873
:102DD000F0D828688003F7D42078DFF8AC82800729
:102DE0004FF0000A3ED5A748001D016811F00C0FF6
:102DF00008D00068C0F3810002280BD1D9F8000088
:102E0000400207D42868800716D5E068012800D161
:102E100012E033E1E068B8B10120C8F80000FFF724
:102E200097FD064605E000BFFFF792FD801B0228D4
:102E3000C0D828688007F7D52868216920F0F800F5
:102E400040EAC10028600DE0C8F800A0FFF780FD4F
:102E5000064604E0FFF77CFD801B02281FD8286887
:102E60008007F7D42078000722D5864F874861690C
:102E7000703771B101210160FFF76AFD064604E079
:102E8000FFF766FD801B022809D838688007F7D550
:102E90000EE0C0F800A0FFF75BFD064605E082E00B
:102EA000FFF756FD801B02287DD838688007F7D4CD
:102EB0002078400768D5DFF8CCB100270BF13C0B38
:102EC000DBF80000C0000BD4DBF8001041F08051AB
:102ED000CBF80010DBF80000012700F080500090D4
:102EE0006B4E3068C00510D4306840F4807030609C
:102EF000FFF72EFD009005E0FFF72AFD0099401A2C
:102F0000022850D83068C005F6D55E4EA0686C36F1
:102F100001280FD00528306810D020F00100306063
:102F2000306820F004003060A068B8B1FFF710FDF1
:102F300000900FE0306840F00100F4E740F004003A
:102F40003060F7E7FFF704FD0099411A41F288303D
:102F5000814266D830688007F4D50EE0FFF7F8FCB0
:102F6000009007E0FFF7F4FC0099411A41F2883025
:102F7000814256D830688007F4D42FB1DBF80010B6
:102F800021F08051CBF80010A069C8B33D49091D5C
:102F90000968C1F3810102294AD00228504607D0AE
:102FA000C8F8600000E03CE0FFF7D2FC04463BE0DC
:102FB0004746C8F86000FFF7CBFC064605E000BFB7
:102FC000FFF7C6FC801B02282BD828688001F7D4A5
:102FD000D4E907010843A16A2E4A490802EB0141DE
:102FE000626A41EA8211084394F82C1040EA0161B8
:102FF000C9F8001001203866FFF7AAFC044606E075
:103000003EE000BFFFF7A4FC001B022809D8286897
:103010008001F7D534E000BFFFF79AFC001B0228BF
:1030200002D90320BDE8F88F28688001F4D427E096
:103030000128F7D0D9F80000E26900F4800191423C
:103040001CD1226A00F03F01914217D147F6C071AE
:10305000626A0140B1EB821F10D1A26A4FF0FF33C8
:1030600000F4403103EB5202B1EB024F06D194F869
:103070002C1000F07060B0EB016F01D00120D1E79F
:103080000020CFE70438024000004742800E47424C
:10309000007000400000FFFF7047704710B590F8C7
:1030A0003C20012A22D0012280F83C20CA688C688A
:1030B00022F4407222434C6822F4806222430C685E
:1030C00022F4006222430C6922F4805222434C69AC
:1030D00022F400522243C969002322F480420A43A9
:1030E00001684A6480F83C30002010BD022010BD09
:1030F00070B590F83C20012A32D0012480F83C4081
:10310000022280F83D2003685A689D6822F070060C
:103110000A6832435A60134B02689A4214D0B2F1E3
:10312000804F11D0104B9A420ED0104B9A420BD0C8
:103130000F4B9A4208D00F4B9A4205D00E4B9A4241
:1031400002D00E4B9A4204D1496825F080031943FE
:10315000916080F83D40002180F83C10084670BD29
:10316000022070BD00000140000400400008004043
:10317000000C0040000401400040014000180040E5
:1031800010B5040003D094F83D0010B107E0012011
:1031900010BD002084F83C00204600F01FF80220FB
:1031A00084F83D00211D206801F00AFC012084F80C
:1031B000460084F83E0084F83F0084F8400084F81C
:1031C000410084F8420084F8430084F8440084F805
:1031D000450084F83D00002010BD000008B50068DF
:1031E0000C49884208D10C48016841F00101016096
:1031F000006800F001000BE00849884209D1064848
:10320000001F016841F002010160006800F0020047
:10321000009008BD00000140443802400004004016
:1032200090F83D10012901D001207047022180F85B
:103230003D100168CA6842F00102CA600068114985
:10324000884214D0B0F1804F11D00F4988420ED07F
:103250000E4988420BD00E49884208D00D49884259
:1032600005D00D49884202D00C49884204D18168BA
:1032700001F00701062903D0016841F00101016056
:10328000002070470000014000040040000800409A
:10329000000C0040000401400040014000180040C4
:1032A00070B5044690F83C000025012817D001268F
:1032B00084F83C60022084F83D002068826822F097
:1032C000770222F47F4282600868502838D00DDCF3
:1032D00020284FD005DC90B3102811D14AE00220FD
:1032E00070BD302846D040280AD13BE060282FD05E
:1032F00070280DD0B0F5805F03D0B0F5005F12D01C
:10330000012584F83D60002084F83C00284670BD0B
:10331000CB68D1E90121206801F0C3FB20688168F6
:1033200041F0770109E0CB68D1E90121206801F083
:10333000B8FB2068816841F480418160E1E719E0D1
:10334000CA684968206801F081FC5021206806E0C5
:10335000CA684968206801F08AFC6021206801F091
:10336000AAFBCEE7CA684968206801F06FFC4021DB
:103370002068F4E7226801461046F0E7704770B510
:103380000446006801694FF00005C943890715D458
:10339000C168C943890711D4E91E01610120207762
:1033A000206880698007204602D0FFF7E7FF04E02D
:1033B00000F0DAF8204600F06CF925772068016902
:1033C000C943490717D4C168C943490713D46FF0EB
:1033D00004010161022020772068806910F4407F99
:1033E000204602D0FFF7CAFF04E000F0BDF82046F7
:1033F00000F04FF9257720680169C943090716D401
:10340000C168C943090712D46FF0080101610420A3
:1034100020772068C0698007204602D0FFF7AEFF02
:1034200004E000F0A1F8204600F033F92577206889
:103430000169C943C90617D4C168C943C90613D471
:103440006FF010010161082020772068C06910F436
:10345000407F204602D0FFF791FF04E000F084F89F
:10346000204600F016F9257720680169C943C9078D
:1034700008D1C168C943C90704D1891E016120462A
:1034800000F06CF920680169C943090609D4C168D4
:10349000C943090605D46FF0800101612046FFF79A
:1034A000FBFD20680169C943490609D4C168C943C5
:1034B000490605D46FF040010161204600F055F93E
:1034C00020680169C94389060BD4C168C9438906CC
:1034D00007D46FF0200101612046BDE87040FFF77E
:1034E000DCBD70BD10B586B0044614216846FCF7FB
:1034F00013FF2368174C002117480222A34211D161
:10350000036843F010030360006800F010000590AA
:1035100090020090CDE901210120CDE90310694618
:103520000E4812E00E4CA34211D1036843F0010390
:103530000360006800F001000590C0200090CDE914
:103540000121CDE9031269460648FFF7FBF806B0F2
:1035500010BD000000000140303802400010024061
:103560000004004000000240704770B5044690F827
:103570003C0000260D4601280FD0012084F83C00B5
:103580006AB1042A1DD0082A2FD00C2A3FD0012668
:10359000002084F83C00304670BD022070BD2068D9
:1035A00001F092FA2068816941F008018161206888
:1035B000816921F004018161206881692A691143D0
:1035C00011E0206801F0B0FA2068816941F40061DF
:1035D00081612068816921F480618161206881694D
:1035E0002A6941EA02218161D2E7206801F0D2FA1A
:1035F0002068C16941F00801C1612068C16921F0FA
:103600000401C1612068C1692A69114311E0206881
:1036100001F0F4FA2068C16941F40061C1612068D9
:10362000C16921F48061C1612068C1692A6941EAE8
:103630000221C161ACE710B5040003D094F83D004D
:1036400010B107E0012010BD002084F83C002046A6
:1036500000F01EF8022084F83D00211D206801F0D2
:10366000AFF9012084F8460084F83E0084F83F005A
:1036700084F8400084F8410084F8420084F8430054
:1036800084F8440084F8450084F83D00002010BD13
:103690007047704710B50446022249B104290ED084
:1036A000082913D094F84100012816D0012010BD3C
:1036B00094F83E000128F9D184F83E200FE094F8F8
:1036C0003F000128F2D184F83F2008E094F8400040
:1036D0000128EBD184F8402001E084F84120012248
:1036E000206801F0D1F916492068164A884201D0B5
:1036F000904203D1436C43F4004343642068884202
:1037000013D0B0F1804F10D00F4988420DD00F492F
:1037100088420AD00E49884207D0904205D00D4910
:10372000884202D00C49884204D1816801F0070127
:10373000062903D0016841F001010160002010BD9D
:103740000000014000040140000400400008004067
:10375000000C004000400140001800400068B0F13B
:10376000804F01D1FFF7FAB8704770477047704734
:10377000F8B5016804460868CA684B6910F00F0F75
:103780004FF0000559D003F0010602F4907737435B
:1037900065D0C10705D0D10503D5216C41F00101E9
:1037A0002164410705D5D90703D0216C41F00201FE
:1037B0002164810705D5D90703D0216C41F00401AC
:1037C0002164010707D502F02001314303D0216CA9
:1037D00041F008012164216C00293AD0800604D50B
:1037E000900602D5204601F09CFA20684069216CC1
:1037F000C0F38010090700D460B3204601F06AFAD4
:1038000020684069400621D52068143050E8001F28
:1038100021F0400140E80012002AF5D1A06BA8B1C8
:103820006C490165A06BFEF740FE002811D0A06B2B
:10383000016D01B0BDE8F040084783060FD593063F
:103840000DD52046BDE8F84001F06BBA2046FFF7E1
:103850008EFFF8BD2046FFF78AFF2564F8BD266B72
:103860002023012E79D1C60677D5D60675D50868EE
:10387000486800904869400640D5A16B08684068D8
:103880000004000CEAD0A28D8242E7D9E085C86925
:10389000B0F5807F2DD020680C3050E8001F21F457
:1038A000807140E80012002AF5D12068143050E8F9
:1038B000001F21F0010140E80012002AF5D1206824
:1038C000143050E8001F21F0400140E80012002AA7
:1038D000F5D184F83E30256320680C3050E8001F95
:1038E00021F0100140E80012002AF5D1A06BFEF78C
:1038F00093FDA08DE18D401A81B229E0A08DE18D6C
:10390000401A81B2E08D0028A8D00029A6D02068F6
:103910000C3050E8002F22F4907240E80026002E70
:10392000F5D12068143050E8002F22F0010240E861
:103930000026002EF5D184F83E30256320680C3037
:1039400050E8002F22F0100240E80023002BF5D1B0
:103950002046FFF70BFFF8BDFFE705062BD5150640
:1039600029D594F83D002128F5D1A068B0F5805FF5
:1039700001D12069B0B1206A411C21622168007820
:103980004860E08C401E0004000CE084E3D1206815
:10399000C16821F08001C1602068C16841F0400128
:1039A000C160D8E7206A0088C0F308004860206A38
:1039B000801C2062E5E74006CDD55006CBD5CA680D
:1039C000204622F04002CA6084F83D3000F0B1F990
:1039D000C1E70000C54C000870B5040004D094F89D
:1039E0003D00002510B106E0012070BD84F83C5078
:1039F000204600F023F8242084F83D002068C168A8
:103A000021F40051C160204601F0ECF92068016901
:103A100021F4904101612068416921F02A0141614E
:103A20002068C16841F40051C1602564202084F8F9
:103A30003D0084F83E00002070BD00002DE9F04FED
:103A400087B0054614216846FCF766FCAD48DFF8F0
:103A5000B08210380222D5F800C00024A94B0321FF
:103A6000DFF8A4B2960607154FF0080A4FF48079E4
:103A7000C4453BD1D3F800C04CF4002CC3F800C0BF
:103A80001B6803F400230593036843F001030360FC
:103A9000006800F0010005908DE81600CDE9031ADA
:103AA00069465846FEF74EFEDFF864829749404665
:103AB000C8F80010C0E90164C0E90347C8F8144021
:103AC000C0E90649C8F82040C8F82440FEF7D0FDF8
:103AD00008B1FDF732FFC5F83880002205213420F7
:103AE000C8F83850FEF7E4FF34205CE0DFF82482A9
:103AF000C4455DD1D3F800C04CF4801CC3F800C0AD
:103B00001B6803F480130593036843F00403036008
:103B1000036803F004030593036843F0080303609C
:103B20000068884600F0080005904FF48050CDE909
:103B300000020DF1080C93468CE8100569467648A2
:103B4000FEF700FE0420CDE9000B0DF1080B6946DD
:103B50008BE810057148FEF7F5FDDFF8B4816B497D
:103B600008F1600830394046C8F80010C0E9016427
:103B7000C0E90347C8F814404FF44031C8F8184072
:103B8000C8E90791C8F82440FEF772FD08B1FDF7B7
:103B9000D4FEC5F83880002205213520C8F83850F9
:103BA000FEF786FF3520FEF775FF07B0BDE8F08F02
:103BB000DFF86C814FF0070EC44545D1514B1B1DFA
:103BC000D3F800C04CF0100CC3F800C01B6803F021
:103BD00010030593036843F0010303600068CDE917
:103BE000024100F0010005904FF4C060CDE90002F1
:103BF000CDF810E069465846FEF7A4FDDFF81081C5
:103C0000484908F1C0084046C8F80010C0E90164FE
:103C1000C0E90347C8F814404FF40031C8F8184011
:103C2000C8E90791C8F82440FEF722FD08B1FDF766
:103C300084FEC5F83880002205212520C8F83850B8
:103C4000FEF736FF2520AEE7DFF8DC80C445ACD1B7
:103C5000D3F800C04CF4003CC3F800C01B6803F468
:103C600000330593036843F001030360036803F026
:103C700001030593036843F0080303600068CDF86F
:103C800000A000F00800059088460720CDE90380D9
:103C9000CDE90124924669465846FEF753FD20209F
:103CA000CDE9000A02940720CDE9038069461B484C
:103CB000FEF748FD1549DFF8748048314046C8F8E2
:103CC0000010C0E90164C0E90347C8F814404FF48C
:103CD0004031C8F81840C8E90791C8F82440FEF7F9
:103CE000C7FC08B1FDF729FEC5F838800022052180
:103CF0002620C8F83850FEF7DBFE262053E70000E8
:103D0000004C004040380240000002404060024049
:103D1000BC0C00200050004000080240000C024093
:103D2000001001404064024000440040DC0D0020CF
:103D300070477047FEE7000070B50D4C0025C4F8D1
:103D4000B4520C48016821F040410160016841F023
:103D500080410160C4F8BC52022004F52D7402F0C9
:103D6000E5FD01202060022002F0E0FD256070BD2D
:103D7000008040420004024070B50D4C0025C4F89C
:103D8000B4520C48016821F040410160016841F0E3
:103D9000804101600126C4F8BC62022004F52D7444
:103DA00002F0C4FD2660022002F0C0FD256070BD57
:103DB00000804042000402402DE9F0478146164849
:103DC0000024016821F04041016001680160134E48
:103DD000254627464FF00108C6F8B472022002F0CB
:103DE000A5FDC6F8B4826006040ED6F83C0208B100
:103DF000641CE4B2012002F099FD6D1CEDB2082DA7
:103E0000EAD3B9F1000F04D0FFF796FF2046BDE8D2
:103E1000F087FFF7B1FFF9E700040240008040425D
:103E20002DE9F04106461448016821F04041016047
:103E3000016841F080410160104C0027C4F8B47261
:103E40003D464FF00108F009C4F8BC027006060EAA
:103E5000022002F06BFDC4F8B482022002F066FD7D
:103E6000C4F8B472022002F061FD6D1CEDB2082DA1
:103E7000E9D3BDE8F0810000000402400080404228
:103E800070B50D48016821F040410160016841F0C2
:103E900080410160094C0120C4F8BC02C4F8B4029E
:103EA000042004F52D7402F041FD0025A5600420D6
:103EB00002F03CFD256070BD0004024000804042DD
:103EC0000E4810B5016821F040410160016841F0E1
:103ED000804101600A4C0020C4F8B402C4F8BC025E
:103EE000042004F52D7402F021FD01202060A06063
:103EF000BDE81040042002F019BD0000000402409B
:103F00000080404270B512480024016821F0404111
:103F10000160016801600F4D0126C5F8BC623046A2
:103F200002F004FDC5F8B462012002F0FFFC07E0D6
:103F3000641CE4B2FA2C03D9FFF7C2FF012070BD64
:103F4000D5F83C020028F3D1C5F8B40270BD0000DA
:103F500000040240008040424FF4FA750F4E104CAE
:103F60006F004FF000080023284635811A46194695
:103F700000F048FB30680188E1808188A18040889A
:103F800060802088401C80B22080B84201D3A4F811
:103F90000080022003F08EFEE5E70000F00700201D
:103FA0009804002070B50546FFF76AFF0F4C207893
:103FB0004006000EFFF734FFFFF7A4FF2846FFF787
:103FC0002FFFFFF79FFFFFF75BFF2078012101EB39
:103FD0004000C0B2FFF724FFFFF794FF0020FFF777
:103FE000EBFE0446FFF76CFF204670BD800000200A
:103FF0002DE9F04116460D460746FFF741FF134CE9
:1040000020784006000EFFF70BFFFFF77BFF3846D6
:10401000FFF706FFFFF776FFFFF732FF2078012159
:1040200001EB4000C0B2FFF7FBFEFFF76BFF00247F
:1040300006E00120FFF7C0FE641C05F8010BE4B2A6
:10404000B442F6D3BDE8F041FFF73ABF800000204C
:104050007FB50024154800940194029412490394FA
:1040600001604FF48031C0E901140461047680F8E6
:1040700020400F49C0E90A140125C561C46080F8D9
:1040800030404561FDF70CFD08B1FDF756FC0A20F4
:10409000CDE90005694602940448FDF75BFC002861
:1040A00001D0FDF74AFC7FBD00200140700A0020CE
:1040B0000100000F104810B50E4901600321416056
:1040C00000214FF400228160C0E903124FF4401236
:1040D0004261017641768176C1760177012141778F
:1040E000FDF7B1FF002803D0BDE81040FDF725BC67
:1040F00010BD000000640040B80A0020104810B550
:104100000E4901600321416000214FF400228160CB
:10411000C0E903124FF44012426101764176817684
:10412000C176017701214177FDF78DFF002803D08B
:10413000BDE81040FDF701BC10BD00000068004064
:10414000E00A00201CB500240C4900940A480194A0
:1041500008600846FEF7EEF808B1FDF7EEFB022016
:10416000CDE90040002269460448FEF7C0F8002867
:1041700001D0FDF7E2FB1CBD00740040080B0020DD
:10418000194808B5016841F400110160016801F4A3
:1041900000110091016841F4800101600068002273
:1041A00000F48000009005210B20FEF781FC0B201D
:1041B000FEF770FC002205210D20FEF779FC0D2092
:1041C000FEF768FC002205211020FEF771FC10208C
:1041D000FEF760FC002205213A20FEF769FCBDE8ED
:1041E00008403A20FEF756BC3038024010B59EB069
:1041F0001C221C4902A8FCF776F8002102A803F053
:1042000065FD194C17491C22E0601C3109A8FCF718
:104210006AF8002109A803F059FD124920611C2207
:10422000383110A8FCF75FF8002110A803F04EFD0C
:104230000C4960611C22543117A8FCF754F8002186
:1042400017A803F043FDA06104F108010A20CDE99D
:10425000000100234FF4007204A1074806F06AFB36
:104260001EB010BD2CCD0008980400204B414C5FBF
:104270005461736B00000000593F00082DE9F04FB6
:1042800087B014216846FCF747F8434800240168CA
:1042900041F004010160016801F004010591016829
:1042A00041F080010160016801F080010591016821
:1042B00041F001010160016801F00101059101680F
:1042C00041F010010160016801F0100105910168E1
:1042D00041F002010160016801F0020105910168ED
:1042E00041F0080101600068DFF8B09000F00800BC
:1042F0004FF4D8450590012229464846FEF722FB97
:10430000002208214846FEF71DFBDFF894A000229A
:1043100024215046FEF716FBDFF888B04FF4204703
:10432000012239465846FEF70DFB4FF40078012272
:1043300041461D48FEF706FB00950125CDE90154D5
:10434000694648460394FEF7FDF908200326CDE9A7
:104350000005CDE9024669464846FEF7F3F92420F8
:10436000CDE90005CDE9024669465046FEF7EAF977
:1043700000970396CDE9015469465846FEF7E2F9E5
:10438000CDF80080CDE90154694607480394FEF753
:10439000D9F907B0BDE8F08F30380240000802407C
:1043A0000000024000040240000C024010B596B02C
:1043B00000240F9410941194129413941C2108A8B3
:1043C0001494FBF7A9FF20216846FBF7A5FF2948B5
:1043D0002749016040F61F51C0E9011440F2E7315E
:1043E000C0E9031444618461FEF7CAFE08B1FDF719
:1043F000A4FA4FF480500F900FA91E48FEF750FF0B
:1044000008B1FDF79AFA1B48FFF715F908B1FDF757
:1044100094FA139413A917481494FEF769FE08B18F
:10442000FDF78BFA6020CDE908040A940B940C94F4
:104430000D94042208A90F480E94FFF796F808B1CE
:10444000FDF77BFA00944FF40050CDE9044002944C
:1044500001940394694607480794FEF71FFE08B1CC
:10446000FDF76BFA0348FFF73DF816B010BD0000EA
:10447000000001401C0B002010B58EB000240794F2
:10448000089409940A940B941C2168460C94FBF739
:1044900043FF2248204901605321C0E9011440F63E
:1044A000C311C0E903148461FEF76AFE08B1FDF789
:1044B00044FA4FF48050079007A91848FEF7F0FE21
:1044C00008B1FDF73AFA1548FFF7B5F808B1FDF75E
:1044D00034FA0B940BA911480C94FEF709FE08B1AD
:1044E000FDF72BFA6020CDE9000402940022694612
:1044F0000A480494FFF739F808B1FDF71EFA0422C0
:1045000069460648FFF731F808B1FDF716FA034887
:10451000FEF7E8FF0EB010BD00040040640B002061
:104520000C4810B50A4901604FF4E13141600021A7
:1045300081600C22C160C0E904128161C161FFF792
:104540004BFA002803D0BDE81040FDF7F6B910BDC6
:10455000004C0040AC0B00200C4810B50A4901602B
:104560004FF4E1314160002181600C22C160C0E95B
:1045700004128161C161FFF72FFA002803D0BDE862
:104580001040FDF7DAB910BD00500040F00B0020DC
:104590000C4810B50A4901604FF4E1314160002137
:1045A00081600C22C160C0E904128161C161FFF722
:1045B00013FA002803D0BDE81040FDF7BEB910BDC6
:1045C00000100140340C00200C4810B50A4901606D
:1045D0000B494160002181600C22C160C0E90412D6
:1045E0008161C161FFF7F8F9002803D0BDE81040F0
:1045F000FDF7A3B910BD000000440040780C002076
:10460000A086010010B54FF448748AB0A04200D3D0
:104610002046040A8DF800408DF80100080A8DF844
:104620000200100A8DF804008DF80520180A8DF894
:1046300006004FF4007002908DF8031000208DF8F2
:104640000730049005900820069008AB6A4602A93E
:104650000248FDF791FA0AB010BD0000B80A002028
:10466000FEE7704710B500210948FFF713F8042151
:104670000748FFF70FF800210846FDF75FF904210E
:104680000448FFF707F804490020886310BD0000C4
:10469000640B00201C0B0020000001400268002178
:1046A000118002685180026891800268D18003689D
:1046B00003221A7203685A7202685181026891815A
:1046C0000268D181026811740268517402685182D3
:1046D0000068818270470079C01C8007400F7047D6
:1046E0004068A0F20120042802D24FF40070704705
:1046F00040F2FF10704770B58EB0064600250246A6
:104700008DF800500121684601F0DCFA01F0EEF965
:1047100032460121042001F095FD044601F0E6F93E
:1047200084B90C208DF8020002208DF803000120CE
:104730008DF805508DF8040001463246684601F0B8
:104740008BFE04460EB0204670BD70B58EB00124BD
:10475000064602468DF800402146684601F0B2FA4E
:1047600001F0C4F932460221042001F06BFD054638
:1047700001F0BCF995B90C208DF8020000208DF8ED
:10478000060002208DF803008DF807408DF80440E4
:1047900032460121684601F05FFE05460EB028460C
:1047A00070BD0000064C20698047064D687828B12E
:1047B000606A8047022003F07DFAF7E7E069F8E7D6
:1047C00050040020780400201E4C4FF4FA781A4D53
:1047D0001A4E1B4F04F11C0B04F1380A04F1540962
:1047E00005F0B2FEF1681548884705F0CDFE28882F
:1047F000401C80B22880404506D9002028804FF414
:1048000000511148FEF796F879690D48884771699B
:104810000A48884761690B488847216B5846884792
:10482000E16C50468847A16E4846884702F0A2F8DE
:10483000012003F03FFAD3E77C040020DC000020D5
:104840009C000020D8010020000802400B4D4FF0D2
:10485000FF3421462346094A002006F099F9012831
:10486000F7D12878C00702D00548FCF765FC287806
:104870008007EED50348FCF75FFCEAE788040020D8
:104880003C050020580500200125144E0027144C3B
:1048900005F05AFE307E012801D028B115E0657080
:1048A0000E48FFF7FBFE10E0707E40B1C0B2032857
:1048B00011D00320607085F3138800F0DDFB607871
:1048C000012802D127706770A77005F05DFE0220F5
:1048D00003F0F0F9DCE70220ECE700009C00002088
:1048E0007804002010B5502080F31188BFF34F8F5B
:1048F000BFF36F8F06F0E6F818B104494FF080500F
:104900000860002080F3118810BD000004ED00E075
:1049100030B593B030216846FBF7FEFC14210CA89B
:10492000FBF7FAFC1A480025016841F0805101604C
:10493000006800F0805011901648016841F48041F1
:1049400001600068022400F4804011900120009072
:10495000000401908001CDE90640192008904FF431
:10496000A870CDE9090404200B906846FEF7DEF933
:104970000CA90F2081E831004FF4A0500F90E00205
:10498000109005210CA8FEF7C5F813B030BD00004B
:1049900040380240007000400548016841F4700151
:1049A000016003494FF000608039086070470000E3
:1049B00088ED00E00148FEF7E2BC00003C0E00205C
:1049C000F0B50268254C264D264E274F274B4FF059
:1049D000804CA04209D0604507D0A84205D0B04223
:1049E00003D0B84201D0984204D122F0700E4A6838
:1049F00042EA0E02A0421BD0604519D0A84217D04F
:104A0000B04215D0B84213D0984211D0184DA842E8
:104A10000ED0184DA8420BD0174DA84208D0174D04
:104A2000A84205D0164DA84202D0164DA84203D187
:104A300022F44075CA682A434D6922F080022A4355
:104A400002608A68C2620A688262A04201D098420B
:104A500001D10969016301214161F0BD00000140FC
:104A60000004004000080040000C00400004014029
:104A7000004001400044014000480140001800404F
:104A8000001C00400020004010B501F01F03012170
:104A9000046A99408C430462016A9A40114301629E
:104AA00010BD10B5846842EA032224F47F440A430F
:104AB0002243826010BD826822F070020A4342F0F5
:104AC0000701816070470000F0B5026A22F0010220
:104AD0000262036A42688469124E24F073050C680E
:104AE0002C4323F002058B682B430D4DA84201D0C7
:104AF000B04205D123F00807CB683B4323F0040301
:104B0000A84201D0B04205D14D6922F4407215434C
:104B10008A692A4342608461496841630362F0BD47
:104B20000000014000040140F0B5026A22F01002CA
:104B30000262026A436884690D6824F4E64444EA28
:104B400005248D6822F0200242EA05120F4D104E16
:104B5000A84201D0B04206D1CF6822F0800242EADA
:104B6000071222F04002A84201D0B04207D14D699D
:104B700023F4406343EA85038D6943EA8503436078
:104B80008461496881630262F0BD00000000014059
:104B900000040140F0B5026A22F480720262026AE7
:104BA0004368C46922F4007224F073050C68124E45
:104BB0002C438D6842EA05220E4DA84201D0B04236
:104BC00006D1CF6822F4006242EA072222F4806212
:104BD000A84201D0B04207D14D6923F4405343EAC3
:104BE00005138D6943EA05134360C4614968C163D5
:104BF0000262F0BD000001400004014030B5026ACD
:104C000022F480520262046A4268C3690D6823F488
:104C1000E64343EA05238D6824F4005444EA05344E
:104C2000084DA84202D0084DA84204D14D6922F493
:104C3000804242EA85124260C361496801640462AD
:104C400030BD0000000001400004014010B5036ABF
:104C5000046A24F001040462846924F0F00444EA44
:104C6000021423F00A020A438461026210BD10B5E7
:104C7000036A23F0100303628369046A23F4704318
:104C800043EA023224F0A00343EA01118261016287
:104C900010BD000010B50448FCF744FEBDE810400C
:104CA0000148FEF765BD0000AC0B002010B50448BC
:104CB000FCF738FEBDE810400148FEF759BD000082
:104CC000F00B002010B5806B0021C185C184FEF778
:104CD0004EFD10BD01680C3151E8002F22F4907296
:104CE00041E80023002BF5D10168143151E8002F71
:104CF00022F0010241E80023002BF5D1016B0129CC
:104D000009D101680C3151E8002F22F0100241E86E
:104D10000023002BF5D1202180F83E1000210163F3
:104D2000704708B590F83E10222901D0022008BD36
:104D300082684FF480539A4201D1016921B1816A9E
:104D40009A421BD04AB10AE00268816A5268C2F3F3
:104D500008020A80816A891C08E0026972B102684F
:104D6000526802F07F020A70816A491C8162C18D1B
:104D7000491E0904090CC18503D019E00268526874
:104D8000F1E70168CA6822F02002CA600168CA68B7
:104D900022F48072CA6001684A6922F001024A6105
:104DA000202180F83E10016B012903D0FEF7C0FFDF
:104DB000002008BD0021016301680C3151E8002F7B
:104DC00022F0100241E80023002BF5D101680A68A7
:104DD000D20602D50A6849680091818DFEF7C6FCAB
:104DE000E6E7000070B5044600680169E26821F456
:104DF0004051114301612169A068E269084361697A
:104E0000114308432168CA6849F20C639A4302437C
:104E1000CA6020684169A26921F44071114341616F
:104E200031492068884202D03049884202D1FDF7DA
:104E30003BFF01E0FDF728FFE2690023192164250B
:104E40003226B2F5004F626828D0A0FB0101930F13
:104E50009200FBF717FA0146B0FBF5F06FF018026D
:104E6000504301EB800006EB0010B0FBF5F000F0C2
:104E7000F002B1FBF5F002EB0012B1FBF5F06FF0C0
:104E80001803584301EB800006EB0010B0FBF5F06F
:104E900000F00F0021681044886070BDA0FB010184
:104EA00092185B41FBF7EEF90146B0FBF5F0020109
:104EB000B1FBF5F06FF01803584301EB800006EBEF
:104EC000C000B0FBF5F000F0F80002EB4002B1FBCF
:104ED000F5F0584301EB800006EBC000B0FBF5F0A5
:104EE00000F00700D6E70000001001400014014068
:104EF00010B50448FCF716FDBDE810400148FEF768
:104F000037BC0000340C00200B4882B001680A68EE
:104F10004A680092CA6842F01002CA6001684A6991
:104F200042F040024A610168806B6423034A091D14
:104F300002B0FCF7B1BC0000340C00209805002042
:104F400010B50448FCF7EEFCBDE810400148FEF740
:104F50000FBC0000780C00200C4808B501680A68F6
:104F60004A680092CA6842F01002CA6001684A6941
:104F700042F040024A61122100910168044B806BAB
:104F8000A3F11802091DFCF727FB08BD780C0020CF
:104F90001406002010B5054C01462046E2689047F3
:104FA00020462169BDE81040084700009C00002011
:104FB0000B4882B001680A684A680092CA6842F0E9
:104FC0001002CA6001684A6942F040024A61016801
:104FD000806B6423034A091D02B0FCF75DBC00002E
:104FE000AC0B00202C060020704700000B4882B05C
:104FF00001680A684A680092CA6842F01002CA60F2
:1050000001684A6942F040024A610168806BC82326
:10501000034A091D02B0FCF73FBC0000F00B002062
:10502000900600207047FEE703B401984100009805
:1050300050EAC12018BF04204A0D18BF40F00100FB
:1050400040F2FF72B2EB515F08BF40F0020001284E
:1050500008BF052002B070470907090E002804DBCD
:1050600000F1E02080F80014704700F00F0000F11C
:10507000E02080F8141D7047BFF34F8F054801688A
:10508000054A01F4E06111430160BFF34F8F00BF97
:10509000FDE700000CED00E00400FA050000000050
:1050A00070B5C1482DED020B2DED0E8B82B0119D18
:1050B00025F000449FEDBEDB9FEDBFEB84423EDB5D
:1050C000A4F140511098A1F17F6108430FD0BC4872
:1050D000844202DC28D1109830B39DED100B02B051
:1050E000BDEC0E8B02B0BDE8704000F071BC9DEDD0
:1050F000100B53EC1D2B51EC100BFBF718F99DED29
:10510000100B41EC180B53EC1E2B51EC100BFBF762
:105110000EF953EC182BFBF75EFA41EC100B02B0C2
:10512000BDEC0E8B02B070BD012000F095FC02B00A
:10513000BDEC0E8B02B0BDE8704000F05DBCA14834
:105140009FEDA18B844256DA9DED100BB4F1795F8F
:105150000ADA51EC100BFFF767FF042808BF00F0D4
:105160005BFC9DED100BDAE753EC102B51EC100BB0
:10517000FBF7DDF841EC190B95480621B0EE490A22
:10518000F0EE690A784400F0A7FB53EC192B51ECC0
:10519000100BFBF7CCF841EC1A0B8E48B0EE490A25
:1051A000F0EE690A0421784400F096FB53EC192BC9
:1051B00051EC100BFBF7BBF853EC182BFBF70BFA79
:1051C00041EC100B51EC1A0B53EC102BFBF7AAFA25
:1051D000CDE900019DED000B53EC102B9DED100B64
:1051E00051EC100BFBF7A3F89DED101B53EC112BAA
:1051F000FBF7F1F9D2E09DED100B51EC100B01F033
:1052000000FC53EC182BFBF78AFA9FED730BCDE9EA
:10521000000153EC102B9DED000B51EC100BFBF734
:1052200086F841EC190B6E480621B0EE490AF0EE03
:10523000690A784400F050FB53EC192B51EC100B29
:10524000FBF775F841EC1B0B6648B0EE490AF0EE2F
:10525000690A0421784400F03FFB53EC192B51EC10
:10526000100BFBF764F853EC182BFBF7B4F941EC87
:105270001C0B51EC190B05F022F841EC180B5A48A5
:105280009FED5BABA04222DC53EC1C2B51EC1B0BC3
:10529000FBF748FACDE900019DED000B51EC180B2E
:1052A00053EC102BFBF743F853EC182BFBF793F957
:1052B00053EC1A2BFBF73BF853EC1D2BFBF72CFAA6
:1052C00053EC1E2BFBF72BFA41EC100B5FE08DED3E
:1052D000008B002000909DED000B51EC180B53EC5F
:1052E000102BFBF778F99DED000B41EC1E0B53ECF6
:1052F000102B51EC100BFBF71AF853EC192BFBF7A2
:105300000EFA53EC1E2BFBF70DFA41EC190B53EC84
:105310001C2B51EC1B0BFBF705FA41EC1B0B53EC60
:105320001A2B51EC190BFBF702F853EC1D2BFBF772
:10533000F6F941EC190B53EC1A2B51EC180BFAF758
:10534000F6FF53EC1B2BFAF7F2FF53EC192BFBF78C
:10535000E3F99DED000B41EC180B53EC1A2B51ECCB
:10536000100BFAF7E4FF9FED249B53EC192BFBF78E
:10537000D6F941EC100B51EC180B53EC102BFBF74A
:10538000CBF953EC192BFBF7CAF941EC100B002DAC
:105390003FF7C5AE51EC100B81F0004141EC100B12
:1053A000BDE60000000000000000F03F000000002B
:1053B000075C143326A6913C182D4454FB21F93F79
:1053C0000000F07F0000E03F000000000000F03F20
:1053D000387C0000467C0000000000000000E03F38
:1053E0008A7B0000987B00003333EF3F0000000011
:1053F0000000000000000040182D4454FB21E93F4C
:1054000070B59B482DED020B2DED068B079D25F009
:105410000044A04218DC9748844202DC0AD1069876
:1054200040B19DED060BBDEC068B02B0BDE87040AF
:1054300000F0CEBA002DCCBF9FED8F0B9FED900BEF
:10544000BDEC068B02B070BD8F48A04215DD8F48C1
:10545000A042D8BF4FF0FF3458DD9DED060B51EC54
:10546000100BFFF7E1FD042808BF00F0D5FA9DED11
:10547000060BBDEC068B02B070BD9DED060B51EC2A
:10548000100B01F0BEFACDE9060181489FED828B39
:10549000A0423CDD8248A0421FDD00249FED82AB8C
:1054A0009DED060B53EC1A2B51EC100BFBF793F808
:1054B0009DED060B41EC190B53EC1A2B51EC100B24
:1054C000FAF735FF53EC182BFBF726F953EC192BA1
:1054D000FBF728F9CDE9060149E09DED060B012413
:1054E00053EC182B51EC100BFBF775F89DED060BE8
:1054F00041EC190B53EC182B51EC100BFBF70CF98A
:1055000053EC192BFBF70EF9CDE906012FE06848A3
:10551000A0421FDD02249FED689B9DED060B53EC1E
:10552000192B51EC100BFAF702FF53EC182BFBF779
:1055300052F89DED060B41EC180B53EC192B51EC76
:10554000100BFBF7E9F853EC182BFBF7EBF8CDE960
:1055500006010CE09DED060B032453EC102B9FED90
:10556000580B51EC100BFBF7DDF8CDE906019DED72
:10557000060B53EC102B51EC100BFAF7D8FE41EC54
:10558000180B53EC182BFAF7D2FE41EC190B4E48CE
:105590000621B0EE490AF0EE690A784400F09CF961
:1055A00053EC182B51EC100BFAF7C1FE41EC180B21
:1055B0004648B0EE490AF0EE690A0521784400F049
:1055C0008BF953EC192B51EC100BFAF7B0FE41ECB0
:1055D000100B51EC180B53EC102B002C0EDAFAF7D1
:1055E000FAFF9DED061B53EC112BFAF7A0FE9DED83
:1055F000061B53EC112BFBF792F835E0FAF7EBFFA3
:105600009DED061B53EC112BFAF791FE41EC100BAC
:105610002F48784400EBC40090ED001B51EC100BB8
:1056200053EC112BFBF778F89DED061B53EC112B77
:10563000FBF772F841EC100B2648784400EBC400ED
:1056400090ED001B51EC100B53EC112BFBF767F89E
:1056500041EC100B002DA2BFBDEC068B02B070BD5B
:1056600051EC100B81F0004141EC100B01E7000000
:10567000000010440000F07F182D4454FB21F93F36
:10568000182D4454FB21F9BF0000DC3F0000203EF0
:105690000000F33F00000000000000000000F03FA9
:1056A0000000E63F00000000000000000000004095
:1056B0000080034000000000000000000000F83FF0
:1056C000000000000000F0BFDA78000090780000D1
:1056D0001A780000D277000070B56F4E2DED040BE4
:1056E0002DED048B82B0DDF824C0DDE907235C4298
:1056F0002CF000411C4341EAD474069D22F0004086
:10570000B44205D86C422C4340EAD474B4420BD95D
:105710009DED081B9DED060B02B0BDEC048B04B0A3
:10572000BDE8704000F05EB9ACF14054A4F17F6474
:105730001C430BD0022404EAAC7444EAD27405433F
:105740009FED578B9FED582B07D015E09DED060B75
:1057500051EC100B00F086F942E0002C11BF012C37
:105760009DED060B02B0BDEC048B04BF04B070BD10
:10577000022C38D0032C3BD00B439FED4D1B9FEDEB
:105780004E0B0AD0B14218D1B04209D121F080416C
:1057900020F08040099107900FE0002A15DA10E010
:1057A000474B7B44002C08BF93ED000B0DD0012C20
:1057B00010D0022C17D0032C1AD0B0421DD1002AD1
:1057C00003DAB0EE410AF0EE610A02B0BDEC048BE0
:1057D00004B070BD93ED000B51EC100B81F0004153
:1057E00041EC100BF1E7B0EE480AF0EE680AECE786
:1057F000B0EE420AF0EE620AE7E7401A00159FEDAC
:10580000329B3C28C8BF8DED000B17DCBCF1000FAC
:10581000BCBF10F13C0F8DED009B0FDB9DED080B25
:1058200053EC102B9DED060B51EC100BFAF77AFFA1
:1058300001F0E7F800F016F9CDE90001B4B1012C50
:1058400010D0022C9FED220B53EC102B9DED000B82
:1058500051EC100B19D0FAF75FFF53EC182BFAF745
:105860005BFFBDE7019880F0004001909DED000BCB
:1058700053EC192B51EC100BFAF7C4FF04BF0220B4
:1058800000F0EAF89DED000B9FE7FAF745FF53ECB7
:10589000182BFAF744FFA3E70000F07F0000000098
:1058A000182D4454FB210940182D4454FB2109C0F4
:1058B000182D4454FB21F9BF182D4454FB21F93F06
:1058C000027700000000000000000000000000005F
:1058D000075C143326A6A13C70B504462DED028B5F
:1058E0004D1E00EBC500B0EE408AF0EE608A90EDF0
:1058F000000B35F0060017D053EC182B51EC100BB1
:10590000FAF715FD41EC100B6D1E04EBC50090ED90
:10591000001B51EC100B53EC112BFAF75CFE41EC21
:10592000100B35F00600E7D1022D36D0042D1CD027
:10593000062D1CBFBDEC028B70BD53EC182B51EC37
:10594000100BFAF7F4FC94ED0A1B53EC112BFAF749
:1059500042FE53EC182BFAF7EAFC94ED081B53ECCB
:10596000112BFAF738FE41EC100B53EC182B51ECCD
:10597000100BFAF7DCFC94ED061B53EC112BFAF735
:105980002AFE53EC182BFAF7D2FC94ED040B53ECDF
:10599000102BFAF720FE41EC100B53EC182B51ECB6
:1059A000100BFAF7C4FC94ED021B53EC112BFAF721
:1059B00012FE53EC182BFAF7BAFC94ED001B53ECD3
:1059C000112BFAF708FEBDEC028B41EC100B70BDF9
:1059D00010B553EC102B51EC100BFAF7FCFD41EC19
:1059E000100B10BD10B553EC112B51EC100BFAF746
:1059F000F2FD41EC100B10BD9FED050B10B553EC03
:105A0000102B51EC100BFAF78DFE41EC100B10BD72
:105A100000000000000000009FED050B10B553ECE6
:105A2000102B51EC100BFAF782FC41EC100B10BD5F
:105A3000000000000000001002E008C8121F08C1AA
:105A4000002AFAD170477047002001E001C1121FFF
:105A5000002AFBD170470000014908607047000030
:105A60003805002010B541EC100BFFF7C9FC51ECD4
:105A7000100B10BD10B504004FF0FF3030D0A16CFA
:105A800000292DD0E16C00292AD0216D002927D0D2
:105A9000242020704FF40050A4F85A000320A4F8EA
:105AA0005800607A20B10020E072206910B103E054
:105AB0000120F9E70B482061204600F0FFFB002899
:105AC0000ED10948E0613030206208202075102096
:105AD00060750720A0752046BDE8104000F072B840
